:1000000060220020411B0000837800002D1B0000AF
:100010002D1B00002D1B00002D1B00000000000008
:10002000000000000000000000000000491900006E
:100030002D1B000000000000F51800002D1B000023
:10004000AD180000AD180000AD180000AD1800009C
:10005000AD180000AD180000AD180000AD1800008C
:10006000AD180000AD180000AD180000AD1800007C
:10007000AD180000AD180000AD180000AD1800006C
:10008000AD180000AD180000AD180000AD1800005C
:10009000AD180000AD180000AD180000AD1800004C
:1000A000AD180000AD180000AD180000AD1800003C
:1000B000AD180000AD180000AD180000AD1800002C
:1000C000AD180000AD180000AD180000AD1800001C
:1000D000AD180000AD180000AD180000AD1800000C
:1000E000AD180000AD180000AD180000AD180000FC
:1000F000AD180000AD180000AD180000AD180000EC
:1001000053B94AB9002908BF00281CBF4FF0FF317E
:100110004FF0FF3000F06CB9ADF1080C6DE904CE82
:1001200000F006F8DDF804E0DDE9022304B07047D2
:100130002DE9F047089E0D4604468E46002B40F000
:1001400082808A42174646D9B2FA82F24AB1C2F197
:10015000200105FA02F320FA01F1974041EA030E6B
:1001600094404FEA1748230CBEFBF8FCB9B208FBD9
:100170001CEE43EA0E430CFB01F098420AD9FB182F
:100180000CF1FF3580F01681984240F21381ACF1FA
:10019000020C3B441B1AA4B2B3FBF8F008FB10336B
:1001A00044EA034400FB01F1A14209D93C1900F1E2
:1001B000FF3380F00181A14240F2FE8002383C44CE
:1001C000641A40EA0C4000211EB1D4400023C6E965
:1001D0000043BDE8F08702B9FFDEB2FA82F2002ADE
:1001E0004FD1CB1B4FEA174E1FFA87F80121B3FB03
:1001F000FEFC250C0EFB1C3345EA034508FB0CF303
:10020000AB4207D97D190CF1FF3002D2AB4200F2AC
:10021000E7808446ED1AA3B2B5FBFEF00EFB105545
:1002200043EA054408FB00F8A04507D93C1900F152
:10023000FF3302D2A04500F2D7801846A4EB080491
:1002400040EA0C40C0E78B4208D9002E00F0AF8096
:100250000021C6E900050846BDE8F087B3FA83F13E
:1002600000294BD1AB4202D3824200F2B780841AFC
:1002700065EB030301209E46002EAAD0C6E9004E7E
:10028000A7E7C2F1200C01FA02F3974020FA0CF024
:100290004FEA174E21FA0CFC1843BCFBFEF1050C8B
:1002A0000EFB11CC1FFA87F845EA0C4501FB08F359
:1002B000AB4204FA02F409D97D1901F1FF3C80F048
:1002C0008B80AB4240F2888002393D44EB1A85B204
:1002D000B3FBFEF00EFB103345EA034500FB08F3C9
:1002E000AB4207D97D1900F1FF3C71D2AB426FD907
:1002F00002383D44EB1A40EA014178E7C1F1200C95
:100300008B4022FA0CF71F4320FA0CF405FA01F394
:100310004FEA174E25FA0CF51C43230CB5FBFEF9EA
:100320001FFA87F80EFB195543EA054509FB08FA41
:10033000AA4502FA01F200FA01F308D97D1909F180
:10034000FF3047D2AA4545D9A9F102093D44A5EBA2
:100350000A05A4B2B5FBFEF00EFB105544EA0544B5
:1003600000FB08F8A04507D93C1900F1FF352DD254
:10037000A0452BD902383C4440EA0940A4EB0804CC
:10038000A0FB02894C45C6464D4619D316D05EB136
:10039000B3EB0E0264EB050404FA0CFCCA404CEA11
:1003A0000202CC40C6E900240021BDE8F0873146B6
:1003B00030460EE7AC46EDE6184601E74345E6D287
:1003C000B8EB020E69EB07050138E0E72846D3E7F2
:1003D00060468FE78146BAE7614677E708464BE714
:1003E000ACF1020C3D4415E702383C4426E700BF5F
:1003F000704700BF2DE9F8431F48DFF884801F4F86
:10040000DFF8809007F017FA07F033F910F57A74E7
:1004100041F1000500264A2ED4BF19366FF01806A8
:1004200007F027F902460B464046314607F003FA2B
:100430003E60484606F0ACF807F01BF90B46A042B8
:1004400073EB05010246E6DAA4EB020C2CEAEC7C25
:100450004FF4004E40F2E73000214FF47A7200234F
:10046000CEFB0C01FFF74CFE05F0A0FF14F57A74EB
:1004700045F10005CFE700BF78840000E8040020C4
:1004800092840000F00400202DE9F04F87B0374837
:1004900004F0F6FA044628B9354807F0CCF907B05D
:1004A000BDE8F08F3348DFF8E8A007F0C4F9324820
:1004B00007F0C1F94FF0FF324FF0FF332F4806F03D
:1004C000A5F8DAF8005007F0D4F802460B462C489D
:1004D000294607F0B0F9DAF800504FF47A777D43F7
:1004E0006423B5FBF3F5A36804AA5B680D212046DD
:1004F0009847029028B16FF00401224807F09BF959
:10050000CDE7DDE9046BA6FB078907FB0B991E4AC3
:10051000002340464946FFF7F3FD1C4B03904FF084
:10052000FF324B4508BF424502D26FF08501E4E738
:10053000A5FB066705FB0B77134A002330463946B7
:10054000FFF7DEFD114A4FF0FF31BA4208BFB1425A
:100550000346EAD3A268029900911568039A0D2117
:100560002046A84701460028A4D0C6E7B084000072
:10057000B6840000D7840000F1840000000500204C
:10058000008500002285000040420F003F420F001E
:10059000EC0400202DE9F341DFF848800D4F0E4EAA
:1005A0004FF0FF334FF0FF32404606F02FF83D6822
:1005B00007F05FF805F11904CDE90001224629464C
:1005C000304607F038F9054B1C60054805F0E0FFA0
:1005D000E6E700BFE804002047850000EC040020A7
:1005E00000050020F00400202DE9F04188B0012230
:1005F0000021204807F09BFC012200211E4807F043
:1006000096FC0026002700240125CDE90667CDE9E8
:100610000354CDE90144194B194900944FF4806209
:10062000184806F0E1F8184B1860184B1849009468
:10063000CDE90667CDE90354CDE901444FF480626A
:100640001448DFF8608006F0CFF8C8F80000124BBD
:1006500012490094CDE90667CDE90354CDE9014480
:100660004FF480620E4806F0BFF8C8F8000008B0EA
:10067000BDE8F081F004002000050020F503000033
:100680000012002040020020100500209505000007
:1006900020160020C002002089040000401A00201B
:1006A00040030020140500202DE9F04F91B08B4647
:1006B000029092461C4600259AF8000008B9284688
:1006C0005EE325280AF1010707D0029B59469847A7
:1006D0000028C0F25583013510E2182200210AA833
:1006E00007F00AF99AF80130252B78D000229446B9
:1006F000164696461046394617F8013B2B2B00F05C
:100700009D8000F29480202B00F09B80232B00F032
:100710009A8028B19DF8300040F004008DF8300038
:10072000BEF1000F05D09DF8300040F008008DF8B4
:1007300030002EB19DF8300040F010008DF83000F0
:10074000BCF1000F05D09DF8300040F020008DF87E
:1007500030002AB19DF8302042F040028DF8302060
:100760009DF8302002F04400442803D16FF3861234
:100770008DF830209DF830202A2B42F080028DF831
:1007800030207BD19DF8312042F001024B1C8DF8C6
:1007900031201A782E2A9DF831200CBF012100212A
:1007A00061F341028DF8312074D15A782A2A6AD037
:1007B000013300210A26184610F8012BA2F1300758
:1007C000092F40F28E809DF830200E91C2F3400038
:1007D00040EAD17161F341028DF830205AE00AF10C
:1007E00002078DF833309DF83130D90740F1498147
:1007F00054F8049BB9F1000F07DA9DF8302042F05D
:1008000004028DF83020C9F100095A0740F14281F5
:1008100054F8048BB8F1000F80F241819DF831301B
:100820006FF341038DF831304FF0FF3837E12D2B56
:100830000CD0302B7FF46DAF01225CE74FF0010E3E
:1008400059E7012657E74FF0010C54E7012052E722
:100850000CFB0202303A33461E4616F8010BA0F19B
:100860003007092FF4D9994293D09DF830100D929A
:10087000D20F62F341018DF830108AE70B46002257
:100880004FF00A0CE8E79DF8312042F004028DF8A1
:10089000312002331F4617F8012B6C2A41D025D88E
:1008A000682A2BD06A2A46D04C2A4CD01F4617F80B
:1008B000012B9DF831308DF83320782A00F2D98051
:1008C000572A4DD8412A03D0453A022A00F2D18056
:1008D0009DF83230042262F302038DF83230012396
:1008E0009EE006FB01213039034664E7742A26D0D6
:1008F0007A2ADBD19DF8313006220DE05A78682A39
:100900009DF8312006D1012161F3C6028DF8312016
:100910009F1CCCE71346022262F3C6038DF83130E8
:10092000C5E75A786C2A9DF8312001D10421EBE704
:1009300013460322F0E79DF831300522ECE79DF8DD
:1009400031300722E8E7BDF8303023F4F04323F0DC
:10095000020343F4804343F00203ADF83030A6E7CE
:10096000A2F15801202900F2848001A050F821F062
:10097000350A0000730A0000730A0000730A0000C1
:10098000730A0000730A0000730A0000730A000073
:10099000730A0000D1080000730A0000350A000045
:1009A000F5090000D1080000D1080000D1080000BE
:1009B000730A0000F5090000730A0000730A0000C2
:1009C000730A0000730A00003D0A0000350A0000A7
:1009D000590A0000730A0000730A0000590A000057
:1009E000730A0000350A0000730A0000730A000051
:1009F000350A00009DF83210012003F0780360F3FF
:100A00000201402B8DF8321002BF9DF8301041F0EA
:100A100001018DF83010632A31D1003B18BF01234A
:100A20009DF83020C2F340010B4363F341028DF87F
:100A30003020D8E69DF832100220DEE79DF8322003
:100A400003F07803A3F14000032161F30202434263
:100A50008DF832204341E3E79DF83220032113F063
:100A6000780F61F302028DF8322014BF01230023B6
:100A7000D6E79DF8303043F001038DF83030002385
:100A8000CEE79DF93020002AB4BFDDF834904FF056
:100A9000FF39BAE69B077FF5C7AEDDF838809DF8D1
:100AA00031200023CDE90D339DF8323003F00703E8
:100AB000012BC2F3C30236D1D31E042B20D8DFE8AA
:100AC00003F00307071F1F0054F8040BC11704E0CD
:100AD000073424F00704F4E80201CDE90A019DF887
:100AE000303013F0030654D002983B465246594624
:100AF00006F01FFE0028C0F243810544BA46DBE53C
:100B000054F8040B012A4FEAE071CDE90A0105D13E
:100B10009DF828300A9300230B93E0E7022ADED1E8
:100B2000BDF92800D2E7022B23D1D31E042B13D802
:100B3000DFE803F0030A0A12120020680A9000217D
:100B4000231D0B911C46CAE7073424F00703F3E882
:100B50000201CDE90A01F5E754F8043B0A93012AA2
:100B60004FF000030B93D3D0022AB8D1BDF8283040
:100B7000D0E7042B07D1073424F00704F4E802017E
:100B8000CDE90A01ABE7032B04BF54F8043B0A93F9
:100B9000A5E79DF833007828B0D8622822D8252808
:100BA0003FF493AD5828A9D10DF126030093DDE958
:100BB0000A0104AB0CAA06F071FD8246B8F1000FE1
:100BC0000DF126000CDB9DF83020A0EB0A036FF33B
:100BD000861298458DF8302002D9A8EB03030D93B7
:100BE00080463DE06338152888D801A151F820F0EF
:100BF000710C0000D50C0000FD0A0000FD0A000089
:100C0000FD0A0000FD0A0000D50C0000FD0A0000EE
:100C1000FD0A0000FD0A0000FD0A0000330D00007F
:100C2000010D0000050D0000FD0A0000FD0A000096
:100C3000490C0000FD0A0000010D0000FD0A000043
:100C4000FD0A0000010D0000B8F1000FDDF828A03A
:100C50000ADB4146504606F02FFE0AEB000800264C
:100C6000BAF1000F0CD149E7504606F01EFEF4E73A
:100C70000A9B8DF8103000260DF111080DF1100AB5
:100C8000A8EB0A0306B101339DF83220D0066BD5DC
:100C9000023352060D9948BF0E9A0B4448BF9B1869
:100CA000B9F1000F79DD9DF83020A9EB0309C2F3FB
:100CB00080030393530770D4500664D546B1029B5A
:100CC00059463046984700285ADB039B01351E469B
:100CD000302359E01E0711D413F0100618BF202648
:100CE000DDE90A23002A73F10001BFF65DAF52422D
:100CF00063EB4303CDE90A232D2655E72B26EFE7C7
:100D0000002651E70A9848B30DF1260300930CAA78
:100D100004AB002106F0C2FCBDF8323003F0EF0353
:100D200043F4F04343F010038246ADF8323000261E
:100D300044E70A9B072A3FF6E1AEDFE802F00D0424
:100D4000060D08080D0D1D70D8E61D80D6E6284654
:100D5000E917C3E90001D1E61D60CFE6DFF8C480E2
:100D60000646A8F1050A8BE7110748BF013390E753
:100D7000184603935946029B98470028039B04DAC0
:100D800011B0BDE8F08F20234D444A46002AA5EB60
:100D9000090109F1FF39EBDC0D4636B1029B5946DA
:100DA000304698470028EBDB01359DF83230D906F4
:100DB00001D41A0706D5029B5946302098470028CF
:100DC000DEDB01359DF83230DB0607D59DF83300B8
:100DD000029B594698470028D2DB01350D9E2E44D0
:100DE000731B002B16DC029843465246594606F008
:100DF000A0FC0028C4DB0544A944A9EB0503002B93
:100E00007FF77CAE029B5946202098470028B7DB2D
:100E10000135F2E7029B5946302098470028AFDBA6
:100E20000135DDE77C85000038B54468816004F059
:100E30000304032C054602D02CB1002000E000681A
:100E400000236B6038BD054A05490648452306F076
:100E5000F2FC0248452106F01AFCEEE77D85000011
:100E60008C8D0000A0850000014806F06FBA00BF1D
:100E70007882000008B5D0B14368042B11D100225C
:100E80000368BFF35B8F53E8001F012903D143E8D8
:100E900000200028F7D1BFF35B8F074808BF10463A
:100EA00008BD3BB1006804F043F90020F8E76FF497
:100EB000E040F5E70148F3E7E98FFFFFEA8FFFFF26
:100EC00010B5044618B90D4B0D485B68984761682A
:100ED00008290DD031F004030AD011F0020108D026
:100EE0000848214603F0C0FF00232360002363600D
:100EF00010BD2068142206F0FFFCF7E77401002003
:100F0000BD8500001805002010B5044618B9164B21
:100F100016485B6898476368042B23D0082B21D0C0
:100F2000CBB92368BBB912484FF0FF324FF0FF3303
:100F3000214603F02DFF08B923681BB90A4B0D4861
:100F40005B68984720681422002106F0D5FC63688E
:100F500043F002036360206806F0C2FF636843F059
:100F60000103636010BD00BF74010020BD85000057
:100F700018050020E385000008B508B34368042B7A
:100F800010D101220368BFF35B8F53E8001F0029D3
:100F900003D143E800200028F7D1BFF35B8F0BD1CA
:100FA000002008BD53B100684FF0FF324FF0FF330F
:100FB00003F0BEFF0028F3D00348F2E70348F0E750
:100FC0006FF4E040EDE700BFE98FFFFFEA8FFFFF1E
:100FD00008B5064906484023142206F065FFBDE81F
:100FE00008400449044806F013BA00BF3805002041
:100FF0001805002090820000808200002DE9F04F4B
:10100000B0F81C9085B019F0080F0446039222D066
:1010100001290CBF49F0100949F02009A0F81C90E3
:101020001434204605F0CCFC68B99F4A9F49A0487B
:10103000AC2306F000FC9F48214606F0FCFB9A48D2
:10104000AC2106F024FB039B83F31188BFF36F8F61
:1010500005B0BDE8F08F984FDFF8548209F007091A
:10106000022906D1204606F090FB0028D8D001289E
:1010700068D1D4F818B0A38BBBF1000F0ADA0026B0
:10108000256823F00703C4E9006643F00103A38346
:10109000019627E003F00702511F012934D80021EF
:1010A00023F00703062A25689BB2C4E900110CD17E
:1010B0008D422A4638BF0A462AB1E18B12680131B7
:1010C000E183002AF8D143F00203A383204606F00F
:1010D0005CFB06460028DBD0A38B43F02003A383F0
:1010E00000230193A38B03F007024A45029203D029
:1010F000A268002A40F0F0801DB9019A002A00F091
:1011000036814FF00009E9E0042A0ED123F00703ED
:101110009AB2A283204606F038FB054618B142F089
:101120002002A28300250195DCE74046634940F296
:101130001B133A4606F07FFB40F21B11384606F0BF
:10114000A6FAEFE7032835D1B9F1000F0BD05C49BF
:1011500040464FF4AB733A4606F06DFB4FF4AB716B
:10116000384606F094FA23685BB95649404640F287
:1011700057133A4606F05FFB40F25711384606F027
:1011800086FA23691B6801935BB94F4940464FF4C7
:10119000AD733A4606F04FFB4FF4AD71384606F09A
:1011A00076FAA38B23F0070343F00603A3830025FD
:1011B000AB4697E7042832D1B9F1020F0BD043496F
:1011C000404640F25D133A4606F035FB40F25D11B1
:1011D000384606F05CFAE38B5BB13D4940464FF47C
:1011E000AF733A4606F027FB4FF4AF71384606F06E
:1011F0004EFA23695B6801935BB93349404640F27C
:1012000061133A4606F017FB40F26111384606F0CA
:101210003EFAA38B23F0070343F00403C6E7052837
:1012200032D1B9F1010F0BD02A4940464FF4B273C5
:101230003A4606F000FB4FF4B271384606F027FA42
:1012400023685BB91F49404640F265133A4606F0F1
:10125000F2FA40F26511384606F019FA23699B68E4
:1012600001935BB9184940464FF4B4733A4606F00F
:10127000E2FA4FF4B471384606F009FAA38B23F072
:10128000070343F0050391E70C4940F26B133A461C
:10129000404606F0D0FA002540F26B11384606F0C1
:1012A000F6F9019584E700BFB3860000D9860000F7
:1012B000A0850000F0860000108600008C8D0000E4
:1012C000328600003E8600006186000078860000BD
:1012D0008E8600009D8600004FF0010943F0080350
:1012E00004F1140AA383504605F06AFB68B93A4A30
:1012F0003A49AC23404606F09EFA3948514606F07A
:101300009AFA3548AC2106F0C2F9039B83F31188A1
:10131000BFF36F8FB9F1000F38D1002D4BD1019B76
:1013200013B13049204698474FF02003EFF3118B5B
:1013300083F31288BFF36F8F5046CDF80CB005F0E1
:1013400031FB68B9244A28498123404606F073FAE4
:101350002648514606F06FFA1F48812106F097F99A
:10136000504605F03DFBA38B23F00803A383A38B1A
:10137000DA0628D523F01003A3830121B4F81C90CA
:1013800009F0070900297FF46BAE49E6A16800293E
:10139000C3D00B68029A002B38BF002399464B68D4
:1013A00020461E465B46B047B9F1000FB5D0D9F8CC
:1013B00000304946EEE72946029A2D685B462046F2
:1013C00006F0FFF9A9E713F020011EBF23F0200368
:1013D000A3830221D2E700BFB3860000D9860000B4
:1013E000F0860000F1130000058700001A87000056
:1013F000F8B504460D4600F114064FF02003EFF354
:10140000118783F31288BFF36F8F304605F0CAFA55
:1014100068B90C4A0C490D48812306F00CFA0C48B7
:10142000314606F008FA0748812106F030F93046C7
:1014300005F0D6FAA5613A4620460121BDE8F840FC
:10144000FFF7DCBDB386000005870000A085000023
:101450001A8700002DE9F04704460F4606F0C7F949
:10146000051E5EDB04F114094FF02003EFF3118A2F
:1014700083F31288BFF36F8F484605F093FA68B97B
:10148000384A39493948812306F0D5F93848494660
:1014900006F0D1F93348812106F0F9F8484605F005
:1014A0009FFAE38BA28B4FF6FF718B4202F0070687
:1014B00050D0022E24D10133E38335464FF001088A
:1014C000484605F07DFA68B9264A2A492748AC23E0
:1014D00006F0B1F92848494606F0ADF92148AC219B
:1014E00006F0D5F88AF31188BFF36F8FB8F1000FBB
:1014F00017D0002332463946204606F062F910E044
:10150000930701D0062E0FD100233B606368F3B927
:10151000C4E900773546FEB9524602212046FFF75E
:101520006DFD2846BDE8F087052E18D0012E0BD0A2
:1015300012490E48124A40F2C91306F07CF91048CD
:1015400040F2C91106F0A3F86FF0040504E01F6033
:101550006760DFE76FF00A054FF00008B0E76FF053
:101560008505F9E7B386000005870000A085000027
:101570001A870000D9860000F08600009D860000D2
:10158000108600002DE9F84305464FF02003EFF3E5
:10159000118683F31288BFF36F8F234805F002FA98
:1015A00068B9224A22492348812306F044F91E499A
:1015B000214806F040F91D48812106F068F81A48D4
:1015C00005F00EFA1D4B1C68002C38BF00249CB19E
:1015D0001B4FDFF878804FF00C09D4E90132002D61
:1015E00008BF13462BB198F8142009FB02F2B85C2F
:1015F00098472468002CF0D10B4805F0E1F968B950
:101600000A4A10490B48AC2306F015F906490E4862
:1016100006F011F90548AC2106F039F886F3118877
:10162000BFF36F8FBDE8F883380A0020B38600004F
:1016300005870000A08500001A8700003C0A0020F2
:10164000480A0020D9860000F0860000C80B002060
:1016500000F01F0301229A400A4BBFF35B8F400941
:1016600003EB800050E8003F43EA020140E8001C21
:10167000BCF1000FF6D1BFF35B8F1A4214BF0120FB
:1016800000207047540A002030B51D4B1D7DBFF36C
:101690005B8F05F01F0301229A401A4B690985B040
:1016A000D04303EB810353E8001F01EA000443E841
:1016B000004CBCF1000FF6D1BFF35B8F114217D085
:1016C000114C0C2202FB054207CA01AB83E807005C
:1016D0000E4A7AB193E8070006F02AF90020FFF7D6
:1016E00051FF0C236B430022E118E250C1E90122B3
:1016F00005B030BD82F31188BFF36F8FEEE700BFF6
:10170000C80B0020440A0020480A0020317900005C
:101710002DE9F041374BDFF8F4801C7D88B0074697
:101720002046FFF795FF60B96E463A46214630469F
:1017300006F08EF896E807000C2505FB048585E881
:1017400007000C23634308EB030218F80300650944
:1017500004F01F06C8B37B1C0FD0D2F808E026485F
:10176000264A4FF4004C00210023ECFB0E01FEF74B
:10177000C7FC0121381A05F0F5FA03F0A9FE012093
:10178000FFF700FFBFF35B8F1D4B0122B24003EB5D
:10179000850353E8001F114343E800100028F8D1E7
:1017A000BFF35B8F0C2303FB048494E8070005ABB5
:1017B00083E80700134A1AB193E8070006F0A5F87A
:1017C000FFF762FF04F07CFB01200F4ABFF35B8F41
:1017D0000123B340DB4302EB850555E8002F1A4097
:1017E00045E800210029F8D1BFF35B8F08B0BDE8C0
:1017F000F08100BFC80B00203F420F0040420F00A5
:10180000440A00200B790000540A0020480A0020F6
:101810000B6801330B60014B1B681847B8000020B0
:10182000014B1860704700BFB800002007B50B4699
:10183000002102460191034801A9FEF735FF03B0DC
:101840005DF804FB1118000008B54FF02002EFF31B
:10185000118382F31288BFF36F8F00F0A1FC03485D
:1018600005F0E9FF00F00AF8FCE700BF328700004E
:10187000014910220A60704710ED00E072B6404046
:1018800080F31188BFF36F8FBFF34F8F30BF62B605
:10189000BFF36F8F704700BF72B6494081F3118864
:1018A00020BF80F3118862B6704700BF01B572B6E1
:1018B0000B4A906900281EBF0021916106F0EDFAE5
:1018C00062B6EFF30580A0F110004FEAC0000549B1
:1018D000014409C99847BDE8014003490847000091
:1018E000C80B0020C4800000111B000030BFFFF7B0
:1018F000FDBF00BF12498A684FF030001044EFF37B
:10190000098C80E8F01F202080F31288BFF36F8FCE
:101910000C4F4FF00066CA698A603E60506F00232A
:10192000536780F3118804B5104600F0E7FABDE86C
:10193000044002F1300090E8F01F8CF309887047F2
:10194000C80B002004ED00E01EF0040F0CBFEFF305
:101950000880EFF30980816911F8021C0229FFD089
:1019600001B505F086FF01BD43B2002B08DB012263
:1019700000F01F0002FA00F05B09024A42F823005F
:10198000704700BF00E100E0054B420900F01F0076
:1019900053F82220012303FA00F01040704700BFE3
:1019A00000E100E070B54C1C072C05460E460FD92F
:1019B000114A12491248592305F03DFF114831469A
:1019C00007232A4605F037FF0B48592105F05FFE33
:1019D0006BB2002BACBF03F160430B4B4FEA4414D6
:1019E000B8BF05F00F05E4B2AABF03F561435C552B
:1019F00083F8004370BD00BF5B8700009187000043
:101A0000A0850000AC87000014ED00E00B4A08B58B
:101A10000B4B22F07F029A60BFF34F8FBFF36F8FA3
:101A2000D3F8882022F47002C3F8882003F0F8F875
:101A300005F018FC00F0F6F903F0FCF800000000D7
:101A400000ED00E0094A0A49936809689967094965
:101A500058674B6843F080534B60002383F3118831
:101A6000BFF36F8F9368986F704700BFC80B00205B
:101A7000EC83000000ED00E042F8203C009B42F8BF
:101A80001C3C0A49019B42F8183C029B42F8143C5A
:101A900021F001014FF0807342F8043C42F8081C29
:101AA0000023203A02654367704700BF5B7800005F
:101AB0000B4A0346906890B113F1160F406E05D0A3
:101AC000A0F120029A4206D8834204D281422CBF60
:101AD0000021012100E00021002908BF00207047FB
:101AE000C80B002008B5094B98600D46144600F05D
:101AF00005FA204685F30988002163B681F3118831
:101B0000BFF36F8F0022002305F0A7FEC80B002053
:101B1000044B9968D869884203D003494FF080523A
:101B20000A607047C80B002004ED00E0EFF3088066
:101B3000EFF3098101B5724600F0AEF801BD00BFB8
:101B4000002080F31488BFF36F8F06F029FA00207D
:101B50000D490860BFF34F8F0C4880F3088800F0F0
:101B60007DF9202080F3118809484FF40261401864
:101B700080F30988EFF314800221084380F314886E
:101B8000BFF36F8FFFF742FF94ED00E0602200206B
:101B9000E0230020234B70B515469A6A9A6A9A6A28
:101BA000044690071AD5586B9A6A120616D519B1D1
:101BB0009A6A22F080029A629A6A9A6A9A6AD606A9
:101BC0000FD49B6A99070CD40024164A936A43F0F9
:101BD000FF03936200232B70204670BD6FF0150049
:101BE000EAE7104E73681A05EED52146FFF760FF4D
:101BF000044618B180F309880224E6E7B36ADB06DD
:101C0000E2D5094A09490A4840F2491305F013FE92
:101C1000084805F010FE044840F2491105F037FD70
:101C2000D3E700BF00ED00E0EC870000268800004D
:101C3000A0850000708800000D4B9A6A9A6A9A6A23
:101C4000920508D59A6B9A6A120404D518B19A6A5B
:101C500022F400429A62064B9A6A9A6AD20558BFE9
:101C60009A6A9A6A002042F47F429A62087070472A
:101C700000ED00E0074B9A6A9A6A9A6A9A6A9A6A31
:101C80009A6A9A6A6FEA02426FEA12429A620020E6
:101C9000704700BF00ED00E070B5544B5C688AB03F
:101CA0000D46C4F30804002686F31188BFF36F8F36
:101CB00002F07F43B3F17F4F08D102F00C03082BF1
:101CC00004D012075CBF054601267DB9484A494940
:101CD000494840F2F23305F0AEFD484805F0ABFD4F
:101CE000434840F2F23105F0D2FC002500238DF884
:101CF0000730E31E032B72D8DFE803F002696D4959
:101D00003A4BDC6A14F0020469D1DA6A002A18DB63
:101D1000DB6A5B004ED5AB6933F8022C4DF60273DB
:101D20009A420DD003F1604303F626631B780BB390
:101D30000DF1070201212846FFF72CFF044600E0C1
:101D40002C689DF807309BB92022294602A805F08F
:101D5000C8FD099B002E44D0C3F3080222B96FEAE4
:101D600053236FEA4323099302A9204605F07FFD20
:101D70000AB070BD224B1B782BB10DF10701012079
:101D8000FFF75AFFDAE71F4B1B889BB213B1FFF72F
:101D900071FFD3E71C49164A174840F2C32305F0E8
:101DA0004AFD1A4805F047FD40F2C321104805F0EE
:101DB0006EFCC6E714490E4A0F4840F2C72305F0EF
:101DC0003AFD134805F037FD40F2C721EEE70DF16B
:101DD00007020021AFE70DF107010020D0E7002442
:101DE000AFE723F4FF7323F00103BCE700ED00E04D
:101DF000EC87000093880000A0850000A688000002
:101E000029ED00E02AED00E08C8D0000E488000060
:101E100008890000024A536943F010035361704778
:101E200000ED00E0044800232021C2180133302BCC
:101E300082F80013F9D1704700E100E0064A11680A
:101E40000023C1F3072118468B4200D170479360ED
:101E500010610133F8E700BF90ED00E008B572B6FD
:101E6000002383F31388FFF7E9FF144B4FF0FF3291
:101E7000C3F88020C3F88420C3F88820C3F88C20DE
:101E8000C3F89020C3F89420C3F89820C3F89C208E
:101E9000C3F88021C3F88421C3F88821C3F88C21BA
:101EA000C3F89021C3F89421C3F89821C3F89C216A
:101EB00062B6BFF34F8FBFF36F8F08BD00E100E044
:101EC000064B9B68834207D1EFF3058323B1044A95
:101ED000536843F08053536004F0A6BAC80B002047
:101EE00000ED00E0024B034A0348012100F068B80E
:101EF0000000042000000020A4820000426E054B78
:101F0000203A1A60044A2021C3E90112184601212F
:101F100000F07EB8580A002000000B15F0B51E4FE7
:101F200000268E4201DB1046F0BD446884B353B1F5
:101F300004F1FF3C14EA0C0F18D11F2C16D90568C8
:101F40001CEA050F12D1202C0568D0F808C0D2B2C7
:101F50000FD9B4F1004F0ED8013CB4FA84F4C4F1A7
:101F60001F046400072A4CEA040406D96FF0150226
:101F7000D9E70824F6E73E24F4E725F01F051543CA
:101F800045F0100544F00104BA60FD6001323C6187
:101F900001360C30C5E700BF90ED00E0034B052291
:101FA0005A60BFF34F8FBFF36F8F704790ED00E023
:101FB000BFF35F8F014B00225A60704790ED00E045
:101FC00038B50E4D01232A780C46FFF7A7FF28707D
:101FD000163011D140F21113094A0A490A4805F096
:101FE0002AFC2146094805F026FCBDE83840044893
:101FF00040F2111105F04BBB38BD00BF2C0C002086
:10200000388900008C8D0000A08500006F890000D9
:1020100010B5124A002312780C46FFF77FFF10F12B
:10202000160F08D00E4B0022072800DD10BD986067
:102030001A610130F8E70B4A0B490C484FF49873CA
:1020400005F0F9FB21460A4805F0F5FBBDE8104014
:1020500004484FF4987105F01ABB00BF2C0C002007
:1020600090ED00E0388900008C8D0000A085000014
:102070009B890000254910B50C68082C13D94FF432
:10208000A473234A2349244805F0D5FB234808229A
:10209000214605F0D0FB1E484FF4A47105F0F7FA75
:1020A0004FF0FF3010BDFFF783FF48681C49002246
:1020B000944200F10C0019D11A4B1C70FFF76EFF0F
:1020C0000B68C3F30723082B0ED01749104A124898
:1020D0004FF4D47305F0AFFB144805F0ACFB0C488B
:1020E0004FF4D47105F0D3FA0020DBE78A6050F892
:1020F0000C3C23F01F03134343F01003CB6050F854
:10210000043C43F001030B610132D1E7B0820000CF
:10211000388900008C8D0000A0850000C88900006F
:1021200090ED00E02C0C0020FC8900004C8A00009F
:10213000014B1860704700BFBC0000204FF0200327
:10214000EFF3118183F31288BFF36F8F0F4A0123DE
:10215000C2F840354FF08042C2F878350C4A126818
:10216000082A08D10B4A1268052A04D80A48825C5A
:102170000AB10A4A13604FF080430122C3F8802558
:1021800081F31188BFF36F8F0020704700E001409A
:1021900030010010340100107C8A00003806004035
:1021A0004FF08043C0B2C3F81C05BFF34F8F054901
:1021B000054BCA6802F4E0621343CB60BFF34F8F54
:1021C00000BFFDE700ED00E00400FA0520B1034B7D
:1021D000800143F001031847704700BF7082000080
:1021E000054A0123C2F8003508B1D3607047136077
:1021F000024A1360704700BF007000400470004046
:10220000087970B500F01F04072C1FD80B78092B34
:102210001CD8DFE803F006060606061B051E1B2079
:1022200005234A78032A18D0042A0FD100254A88AA
:1022300044F20A06B24244D011D844F20306B24234
:102240003BD044F20506B24239D0D2B36FF015004C
:1022500032E00623E5E70723E3E70125E7E744F259
:102260001406B2422FD044F22806B2422DD044F2D6
:102270000F06B242EAD10322C0F340101B0243EA28
:10228000005343EA053343EA0243220102F180424C
:1022900002F5E0420020C2F81835230103F1804323
:1022A00003F5E0438A79C3F81425C3F81005084BF9
:1022B0001C444B7984F8903070BD0022DCE7012289
:1022C000DAE70222D8E70422D6E70522D4E700BFE6
:1022D000000000202D4B1A6810B5002A48D00022BB
:1022E0001A601B682A4C2B4B01211960C3F8F82493
:1022F000636EC3B3E36F43B1B4F8882004F16401A3
:102300009847012814D0022828D0B4F88830B4F8AF
:1023100084209A4222D90133A4F888301E4BD3F886
:102320002C26D3F8341689B202EB4102C3F82C26CE
:10233000A36F2BB994F87600BDE81040FFF750BFAB
:10234000BFF35B8F54E8003F5A1E44E80021002988
:10235000F8D1BFF35B8F012BECDC10BDA36F13B181
:102360000E4805F000FE0E48BDE8104004F010B91C
:102370000C4B19680029F0D01A60064A1B6801232B
:10238000136042F8083C42F8043CE6E70471004060
:10239000000000200870004000700040080000208D
:1023A0005000002010710040F7B50D465D484FF019
:1023B000FF324FF0FF3304F029F9686810B96FF06D
:1023C000150497E030F0FF02F9D1574C574F1146F2
:1023D00020FA02F313F0010332D0BB1893F890C037
:1023E000BCF1000FEBD004EB021E6E7CDEF818355A
:1023F000003E18BF012623F0807343EA0663CEF83F
:10240000183502F151031B01013144F803C0C9B270
:102410000132082ADCD12B7C083B062BCFD801A245
:1024200052F823F009250000BF2300004B240000D0
:10243000BF23000001250000BF2300000525000088
:1024400002F151063601A351E2E70122364B012980
:10245000C3F8F0256A7C59D9002AB0D1C3F8F42515
:102460002A684B0012B1928902FB0333EA689A4250
:1024700054D32D4BAA68C3F82C262F46C3F8301628
:102480000FCF2A4C04F164060FC63B6833602B68FB
:1024900000262666002B3CD00FCB04F1780585E89A
:1024A0000F006566A4F8886098B3BFF35B8F54E8AB
:1024B000003F44E80062002AF9D1BFF35B8F1C485B
:1024C000A66F1C4A4FF4004500210023E5FB0601DE
:1024D000FDF716FE0022CDE90001002304F10800FB
:1024E00004F060FE14484FF0FF324FF0FF3304F069
:1024F0008DF8246E0B4804F04BF8204603B0F0BD75
:102500000222A3E70322A1E700229FE7082AA5D918
:1025100055E794F87600FFF763FEE3E76FF00B04EE
:10252000E8E700BF400000200070004000000020ED
:102530003F420F0040420F00500000200D4B10B5ED
:1025400000241C601B680C4B1C601B680B4B122288
:10255000C3F804230720FFF707FA224601210720CA
:10256000FFF720FA0648836C13B9403004F010F8E6
:10257000002010BD04710040107100400070004048
:10258000000000202DE9F041104C071BC7F347174E
:102590004FF00C0808FB07F8064608F148000D4606
:1025A0002044402105F0E6F9011E09DB084B4444B4
:1025B000C4E91035074B53F83730BDE8F0411847F0
:1025C00030462B46BDE8F041184700BF740A002092
:1025D000D7790000F482000038B5CCB2012C054652
:1025E00009D9094909480A4A792305F024F9084814
:1025F000792105F04CF82B690C2104FB0134A06C07
:1026000000F0070038BD00BFC58A0000A0850000AB
:10261000888A0000F8B5CCB2012C07690546164639
:102620000BD918491848194A40F24D1305F003F91F
:10263000164840F24D1105F02AF84FF02003EFF351
:10264000118283F31288BFF36F8F0C2303FB047195
:10265000896C11F0C00101D08E4210D103FB0473CC
:1026600001219964002082F31188BFF36F8F28B98C
:10267000696801EBC404636898470020F8BD4FF017
:10268000FF30F0E7C58A0000A0850000888A0000BE
:1026900070B50D460649411A0446491105484022C5
:1026A000FFF7B8FF2B4601462046BDE870401847AB
:1026B000740A00201C800000002270B5012104462D
:1026C0001046FFF76FF90020FFF74EF90F4801F0B1
:1026D000BFF80F4B984215D101F0DEF826690D497D
:1026E000304605F093F800280BDB0125B56424691A
:1026F000084904F1200005F089F8002801DB656530
:10270000002070BD6FF00400FBE700BF4D27000004
:102710000000AD0B0483000001460C2309484B4325
:1027200070B5C418D4E91056002248332264184406
:1027300005F03EF92DB132462B460348BDE8704006
:10274000184770BD740A00201C800000012808B5DD
:1027500006D0032808D0A8B9104B9B6C5B071BD18F
:10276000BDE80840FFF7D8BF0D490E4A0E4840F2B9
:102770005E2305F060F840F25E21BDE8084009489C
:1027800004F085BF0649074A074840F2622305F076
:1027900052F840F26221F0E708BD00BF740A002041
:1027A0008C8D0000888A0000A085000008B54FF0DD
:1027B0002003EFF3118183F31288BFF36F8F124A66
:1027C000136843F0020013F0010310600CD04FF0C7
:1027D0008042D2F80C34D2F80C2413F0010303D059
:1027E0000A4805F0E5F8012381F31188BFF36F8FE4
:1027F00023B1BDE808400020FFF78EBFBDE80840C8
:10280000012001F069B800BFCC0A0020BC0A0020FA
:10281000094BBFF35B8F53E8002F22F0020143E81E
:1028200000100028F7D1BFF35B8FD30702D401203B
:1028300001F0A6B8704700BFCC0A00201FB50022E7
:102840000123CDE90223094ACDF800D06B46CDF82B
:1028500004D005F0D2F8002805DB4FF480420023B5
:10286000684603F0D3FE05B05DF804FBF57900007F
:102870002DE9F8434949BFF35B8F0546012251E832
:10288000003F41E800200028F9D1BFF35B8FA3B9D6
:10289000434944484B60CB608A60FEF7DBFD00286B
:1028A0000BDA41494148424A4FF4087304F0C3FF30
:1028B0003F484FF4087104F0EAFEADB36B1E012BE4
:1028C00056D8012D07D14FF08043D3F81C3403F0C4
:1028D0000303012B28D005F036FB044618B9354B0D
:1028E0001B78002B52D14FF02003EFF3118683F3B6
:1028F0001288BFF36F8F01242F4FDFF8C480DFF8F9
:10290000C4904FF08042D2F81834D2F81824D20381
:102910000CD503F00303012B01D0012D06D10CB31C
:1029200086F31188BFF36F8FBDE8F883ACB13046F2
:10293000FEF7B2FF4FF08042D2F81835002BE0D1FD
:1029400039680029DDD03B603B680123C2F81835A7
:10295000C8F88031C9F80030D3E70021212003F006
:1029600025FDE7E74FF080430222C3F80423DBE7AD
:1029700012490E480E4A40F2322304F05CFFBDE8D3
:10298000F8430B4840F2322104F081BE4FF08043FF
:102990000222C3F808230646AEE700BFD00A002093
:1029A000640A0020940A0020E98A0000A085000043
:1029B000888A00003D100020040100408C8D00003A
:1029C00000E100E00800004008B5084B0848186026
:1029D00005F059FA38B10748FFF7AAFB0548FEF79A
:1029E0001FFF002008BD6FF01200FBE7D40A002093
:1029F0007C800000F92900000A2838B5074D0446FC
:102A000004D1286883680D215B689847286883682B
:102A1000E1B25B689847204638BD00BFD40A002069
:102A200070B5056916460C4661B92249224A234809
:102A3000242304F000FF224804F0FDFE1E48242158
:102A400004F025FE636863B91E491B4A1B48252311
:102A500004F0F1FE1C4804F0EEFE1748252104F0B6
:102A600016FE6B685BB100229C4213D123685AB9F1
:102A7000AA686B60944200D1AB600023236076B9F2
:102A8000002070BD0B46EFE71360AB689C4208BFA7
:102A9000AA60F2E719681A460029F3D13EB16B68C3
:102AA0002360A8686C600028EAD1AC60E9E76FF0A9
:102AB0001500E6E7258B0000F88A0000A0850000DD
:102AC0002E8B00003D8B00004F8B000043092DE949
:102AD000F04703D0012B36D0BDE8F0871B4F3B6990
:102AE0005C68002CF8D02568DFF86C80DFF86C900B
:102AF000DFF86CA000F01F000126002D06FA00F69A
:102B000038BF0025A3681E4214D0636863B94946E4
:102B100045234246504604F08EFE0D4804F08BFEDD
:102B20004521404604F0B3FDD4E90132214632404C
:102B300038469847002DCFD02B68002B38BF002394
:102B40002C461D46DEE7034FC9E700BF3480000076
:102B50004F8B00004C800000F88A0000668B00005C
:102B6000A08500007FB54068057B01F01F04B2F529
:102B7000005F44EA45144FF0000504D1204601F0FF
:102B800097FA002054E0B2F5804FCDE9025551D1BB
:102B9000B3F5003F0CBF042305238DF8083083688C
:102BA00023FA01F111F0010155D1B2F5A03F52D144
:102BB00066094AD04FF6FF73012E08BF194604F08C
:102BC0001F05E940CA070BD42B492C482C4A40F278
:102BD000292304F030FE2A4840F2292104F057FD51
:102BE0006EB1012E34D027492448254A40F22E23C5
:102BF00004F021FE224840F22E2104F048FD4FF05F
:102C0000A04305F5E07553F82530DB0723D40DF11B
:102C100007052946204601F075F91B4B984219D14A
:102C2000284601F0CFF9194B984213D06FF00B00F2
:102C300004B070BDB3F5C02F05D0B3F5003F0CBF95
:102C400002230123A9E70323A7E74FF0FF31B6E7EB
:102C50000F4BD6E703950023194602AA204601F040
:102C600033F80A4B984204D10121204601F0B0F913
:102C700087E76FF00400DBE7A58B0000A08500006C
:102C8000728B00008C8D00000400AD0B0000AD0BBA
:102C90000003005010B501F085F9044668B901F051
:102CA00059F9084B98420AD10748214601F024F906
:102CB000224605210620FEF775FE002010BD6FF0AC
:102CC0000400FBE70000AD0BCD2A00002DE9F04326
:102CD00047683B7B01F01F0585B00E4645EA43156A
:102CE0001446CAB902A9284601F00CF90446284640
:102CF00001F000FA484B984204D06FF0040005B090
:102D0000BDE8F083844205D19DF8080001F054F934
:102D1000A042F2D10020F2E74FF000090DF10301CB
:102D20003046CDE9029901F0EDF84B46804602AA03
:102D30004946284600F0C8FF374B984202D06FF052
:102D40001500DCE7804503D19DF8030001F034F95C
:102D5000A3054ED5314B324A234093423AD00CD88A
:102D6000062B14D004D893B1022BE8D104230EE033
:102D7000B3F5801FE3D1012309E02A4A93422BD007
:102D8000B3F5A00F2AD0B3F5800FD8D102238DF868
:102D9000043084F48073C3F30023E0068DF805301B
:102DA00054BFC4F34013032321058DF8063017D513
:102DB0007B68012101FA06F6C3F80865002201A923
:102DC000284601F029F8144B984214BF6FF0150003
:102DD000002094E70723DAE70523D8E70323D6E7A3
:102DE000620541BF7B68012101FA06F6C3F80C6554
:102DF000E4E7E3064FF0000354BFC4F34014032498
:102E00001A4601A928468DF8044000F05DFF024BE8
:102E100098423FF47FAF92E70000AD0B0600F00050
:102E2000060010000200400002480021C2E9000133
:102E3000002070470024F40002464068126938B54B
:102E400000F10803043200F10C04194613F9015B88
:102E5000002DB4BF00254FF40045A34222F8025BC9
:102E6000F4D100231A4601F007FB034B984214BF2C
:102E70006FF00F00002038BD0000AD0B0268530951
:102E800010B504462CD0012B4FF6FF7318BF00235A
:102E900002F01F02D340DB070BD414491448154A33
:102EA00040F2292304F0C7FC124840F2292104F023
:102EB000EEFB236803F01F025B0922600DD0012B9B
:102EC00011D00D490A480B4A40F22E2304F0B3FCFE
:102ED000084840F22E2104F0DAFB4FF0A04010BD6C
:102EE0004FF0FF33D4E70548F9E700BFA58B00009A
:102EF000A0850000728B00008C8D00000003005044
:102F0000F0B54B79012B26D0032B21D110268B79DC
:102F1000032B1DD1CC790CB1012C19D10A7912B136
:102F2000022A15D10E220B684568B3F5164F2D689D
:102F300065D02DD8B3F5165F64D016D8B3F5966F6B
:102F400062D00AD8B3F5967F61D0B3F5167F61D011
:102F50006FF0850052E00026D9E7B3F5166F5CD01C
:102F6000B3F5965FF4D1374B3CE0B3F5E14F57D062
:102F700007D8B3F5615F55D0B3F5964FE8D1324B22
:102F800030E047F61227BB42E2D14FF4000329E0BC
:102F9000B3F5613F48D013D8B3F5963F47D009D871
:102FA0004DF6C027BB4244D0B3F5614FD0D14FF4AA
:102FB0006B0317E0B3F5E13FCAD14FF0EB7311E0BB
:102FC000B3F5612F38D008D8204FBB4237D0B3F5C6
:102FD000E12FBDD14FF0E86304E01D4FBB42B7D1F4
:102FE0004FF08053C5F82435036903C934432243A5
:102FF0000433C5F86C2583E803000020F0BD4FF4CE
:103000001D03EFE7134BEDE74FF49E23EAE74FF480
:10301000A033E7E74FF41C33E4E74FF41D23E1E767
:103020000D4BDFE70D4BDDE74FF06C73DAE70C4B30
:10303000D8E74FF46503D5E74FF07063D2E74FF060
:103040008063CFE700B0130000A04E0090D00300D3
:1030500040420F000050270000C0750000F03A0009
:1030600000903A010268530910B504462CD0012B98
:103070004FF6FF7318BF002302F01F02D340DB0797
:103080000BD414491448154A40F2292304F0D3FB09
:10309000124840F2292104F0FAFA236803F01F02D3
:1030A0005B0922600DD0012B11D00D490A480B4A53
:1030B00040F22E2304F0BFFB084840F22E2104F01A
:1030C000E6FA4FF0A04010BD4FF0FF33D4E70548BB
:1030D000F9E700BFA58B0000A0850000728B0000FF
:1030E0008C8D000000030050F8B5066905460F46B8
:1030F00004F029FF10B92C4B1B7883B94FF0200343
:10310000EFF3118483F31288BFF36F8F284604F026
:10311000CCFD28BB84F31188BFF36F8FEEE76424E6
:10312000284604F0C2FD70B9012004F010FE013CF5
:10313000F6D10021212003F039F9F0E784F311885A
:10314000BFF36F8FF5E74FF02003EFF3118483F3A4
:103150001288BFF36F8F284604F0A7FD0028EDD03A
:1031600006F8107F69680B680122C3F84465C3F84C
:1031700048250022C3F82021D3F82001C3F85821A4
:10318000D3F858214A68D20641BF0822C3F8002567
:103190004FF48002C3F8042301229A6084F311885B
:1031A000BFF36F8FF8BD00BF3D1000202DE9F7433E
:1031B000D0F804800769D8F800400023C4F800352F
:1031C00038604568EB680646581C13D001A8019387
:1031D000FFF748FF019A01239340C0F80835EB68D8
:1031E000019301A8FFF73EFF019B03F5E073032263
:1031F00040F823202B69591C11D02A7F0193002A03
:1032000001A814BF4FF003094FF00009FFF72AFF90
:10321000019B03F5E0734FEA890240F823206B69B4
:103220005A1C13D001A80193FFF71CFF019A012338
:103230009340C0F808356B69019301A8FFF712FFAE
:10324000019B03F5E073032240F82320AB69581C6F
:1032500011D06A7F0193002A01A814BF4FF003091F
:103260004FF00009FFF7FEFE019B03F5E0734FEA04
:10327000890240F82320D5E903122B68C3F80C1506
:10328000C3F81425D5E90512C3F808153169C3F848
:10329000102504313046FFF733FE0546002846D19D
:1032A000D8F80430990719D507F1120001F020F879
:1032B000224B98423FD1B87CC30003F1804303F511
:1032C000F83304F10C0204F59071C3F81015C3F83B
:1032D00014251B4A01238340C2F804350823C4F88F
:1032E000003598F808305BB9C4F81031D4F81031C3
:1032F00007F11103C4F834350123C4F838352360CD
:10330000D8F804309A075CBF4FF48072C4F80423E5
:10331000DB0644BF4FF48003C4F8043310370023A6
:10332000C4F84475C4F848350123A360E360284617
:1033300003B0BDE8F0836FF00405F8E70000AD0BC3
:1033400000F00140194970B5044622F07F46086834
:10335000C1E90023A6F50013101AB3F5400F4FF092
:1033600000050AD2124B19680A060B0A9219114974
:1033700043F10003C1E90023012503F043FDA3004D
:1033800003F1804303F58833D3F84025B2420BD1D3
:103390001DB94FF40002C3F84025074B4FF48030AD
:1033A00000FA04F4C3F8444370BD00BFD803002002
:1033B000080B0020C00300200010014010B50123BD
:1033C0008340114ABFF35B8FDC4352E8001F01EAE0
:1033D000040C42E800CEBEF1000FF6D1BFF35B8FC4
:1033E0004FF4803202FA00F002F1804202F580527E
:1033F000C2F80803BFF35F8FBFF36F8F0B4214BF98
:103400000120002010BD00BF040B00200123124A40
:10341000BFF35B8F834052E8001F194342E8001C52
:10342000BCF1000FF7D1BFF35B8F0C4A4FF4803330
:103430008340C2F804330A4BBFF35B8F1B68BFF3B2
:103440005B8F23FA00F0C30742BF064B4FF40032F4
:10345000C3F80021704700BF040B0020001001409A
:10346000000B002000E100E00D4B1B68190A180654
:10347000BFF35F8F0B4BD3F80435C01841F1000147
:10348000B3F5801F0AD2084BD3E90023994208BF45
:10349000904203D210F1807041F10001704700BFEB
:1034A000080B002000100140C00300202DE9F04F60
:1034B00085B016461F460546FFF780FF0190FFF7CF
:1034C000D3FFB94208BFB0427FD2B6EB000867EB2A
:1034D000010900234FF080724B4508BF4245C0F000
:1034E0008580444B03EB0513D3E902239F4208BFB9
:1034F000964254D04FEA85094FF4803B09F1804948
:1035000005F150080BFA05F209F588394FEA8808E9
:103510001FFA88F80292384AD9F8400526F07F430E
:1035200008F1804808F588381C469346D2F804A56F
:10353000A0EB0A0020F07F402AF07F410128C9F863
:10354000401505D10393132004F009FD2A4A039B7B
:1035500002990AF1020CA4EB0C0020F07F40B0F5B8
:10356000000F88BF64460020C8F80000D8F80000AB
:10357000CBF8441324F07F40C9F84005DBF804057C
:10358000824506D0201A023820F07F40B0F5000FA7
:1035900019D8E41A24F07F44321947F10003154C7E
:1035A000290104EB0510C0E902230E9A0F9B62501B
:1035B00043600024019B13B12846FFF727FF2046F4
:1035C00005B0BDE8F08F2046B0E701230B4ABFF3FA
:1035D0005B8FAB4052E8001F194342E800100028FF
:1035E000F8D1BFF35B8F32463B46D8E76FF0150446
:1035F000E0E700BFC803002000100140000B0020DE
:1036000073B5194B194D00244FF0FF304FF0FF31C7
:10361000C5F80845C3E902014FF48033C5F8043307
:10362000134B02264FF400320121C5F80463112028
:10363000C3F880212246FEF7B5F91120FEF794F970
:103640000C4A012313600C4A2B6013600B4B0C4A8D
:103650000093019400232046FFF728FF3046FFF730
:1036600007F9204602B070BDC803002000100140D9
:1036700000E100E008100140040B00204533000089
:10368000FFFF7F002DE9F743344CD4F804339A0749
:1036900009D5334B1A6832B100221A60314A1B68CF
:1036A0001368013313604FF02003EFF3118283F3AB
:1036B0001288BFF36F8FD4F80433DB0312D5BFF346
:1036C0005B8F294B53E8001F21F0010043E80006FF
:1036D000002EF7D1BFF35B8F244B002936D1196838
:1036E000002933D1002382F31188BFF36F8F53B3C6
:1036F000FFF7BAFE06464FF02003EFF3118083F385
:103700001288BFF36F8F1A4BD3E90289494508BF6E
:1037100046454FF000021ED34FF0FF364FF0FF3703
:10372000D3E90015C3E902671A604FF48033C4F887
:10373000483380F31188BFF36F8F21B10095424663
:103740004B460020884703B0BDE8F0830021196094
:103750001B680123C7E71146EBE700BF00100140DB
:1037600004110140080B0020000B00204011014013
:10377000C8030020144B13B5B0F1FF3F08BF184633
:10378000441E002C1EDD9C42A8BF1C46FFF76CFEA9
:103790000E4B0F49D3E90023801AB0F5000F28BF64
:1037A00000240130044408480091844228BF0446A4
:1037B00012194FF00000019043F10003FFF776FE6D
:1037C00002B010BD0024E1E7FFFF7F00D803002016
:1037D0004533000008B5FFF747FE024B1B68C01ACF
:1037E00008BD00BFD803002008B578B101281CD05F
:1037F000144A154915484FF44F7304F01CF811484A
:103800004FF44F7103F043FF00200DE031B14FF052
:103810008043D3F8183403F003030B604FF0804368
:10382000D3F81804C0F3004008BD31B14FF0804315
:10383000D3F80C3403F001030B704FF08043D3F83E
:103840000C04EFE7E48B00008C8D0000A0850000E5
:1038500010B5044648B90A490A480B4ABD2303F08B
:10386000EAFF0948BD2103F012FF084B1A7922B97B
:10387000012207481C609A8010BD0648FCE700BF83
:10388000558C0000A0850000188C00000C0B002057
:103890000000AD0B0C00AD0B08B50B4B1B794BB901
:1038A0000A490B480B4AD62303F0C5FF0948D62125
:1038B00003F0EDFE0020FEF767F818B9BDE80840F8
:1038C000FEF752B808BD00BF0C0B0020638C00004F
:1038D000A0850000188C0000224B1B7913B504460C
:1038E0005BB921492148224A4FF4897303F0A3FFB1
:1038F0001F484FF4897103F0CAFE74B1012C27D020
:103900001B4A1C4919484FF4A27303F094FF18484E
:103910004FF4A27103F0BBFE16E001A92046FFF7A9
:1039200063FF4FF0804388B1019A012A0ED1C3F89A
:103930001825114B00221A601B684FF080430222A9
:10394000C3F8042301229A6002B010BD0022EEE702
:103950000A4B00221A601B684FF08043C3F80443EF
:103960001C60F1E70C0B0020638C0000A0850000B8
:10397000188C00008C8D0000040100400001004004
:1039800037B52F4D2A7904465AB92E492E482F4A69
:1039900040F24B1303F04FFF2C4840F24B1103F061
:1039A00076FE7CB1012C28D029492748274A40F2CD
:1039B000671303F040FF254840F2671103F067FEEC
:1039C00003B030BD4FF080430222C3F80823C3F890
:1039D000044103F5827301221B681E4B42F21074EE
:1039E0001A6000210846FFF7FFFE0028E8D00120FA
:1039F00004F0ADF9013CF4D1E2E74FF0804300223E
:103A0000C3F80843C3F8002103F580731B68124B09
:103A10001C608DF8074042F210740DF1070101207F
:103A2000FFF7E2FE10B900236B71C9E79DF80700AC
:103A30000128F8D104F08BF9013CEED1F3E700BF87
:103A40000C0B0020638C0000A0850000188C000087
:103A50008C8D00000C00004004000040164B07B5A0
:103A60001A686AB100221A601B684FF08043012275
:103A7000C3F80823114B587910B95A711B6898473D
:103A80000F4B1A686AB10020186001A91B68FFF784
:103A9000ABFE019A4FF0804332B90122C3F81825DA
:103AA0009A6003B05DF804FB0222C3F80823034BBD
:103AB00001201B689847F4E7000100400C0B002030
:103AC0000401004070B501250368B3FA83F2202A8F
:103AD000C2F11F0414D0BFF35B8F05FA04F223EA8E
:103AE000020250E8006F9E4204D140E8002CBCF175
:103AF000000FF6D1BFF35B8FE6D102480C7070BDAA
:103B00000148FCE70000AD0B0200AD0B0368CB40A1
:103B1000DB0710B515D4012303FA01F10368BFF3E5
:103B20005B8F41EA030250E8004F9C4204D140E819
:103B3000002CBCF1000FF6D1BFF35B8FEED1024831
:103B400010BD0248FCE700BF0000AD0B0400AD0B48
:103B5000054B083033F8100000F02200A0F12203DA
:103B600058425841704700BFE800002070B500F18E
:103B700008030C4C34F81330DA0505460E4607D519
:103B8000C3F3432304EBC30254F83330526898471D
:103B9000A3682BB1E26831462846BDE8704018475B
:103BA00070BD00BFE8000020194B083010B533F895
:103BB0001020D1051DD5C2F3432122F4F85223F879
:103BC000102003F11004002034F8022B12F4807F3F
:103BD00003D0C2F3432291420BD001303028F3D1FD
:103BE000002243F831200B48FFF790FF0A4B984220
:103BF00000D110BD09490A480A4A4FF4997303F0ED
:103C00001AFEBDE8104007484FF4997103F03FBD1C
:103C1000E80000205C0100200000AD0BE58C0000F6
:103C2000A0850000818C000038B50A4C00F1080521
:103C300034F815309A0606D55B0B074A03F5A273D4
:103C4000002142F82310FFF7AFFF002324F81530BE
:103C500038BD00BFE80000200060004010B50446F9
:103C6000006804F076F858B912491348134A40F234
:103C7000292303F0E0FD114840F2292103F007FD5C
:103C8000236803F01F025B0922600DD0012B0ED0C8
:103C90000B490948094A40F22E2303F0CCFD07489E
:103CA00040F22E2103F0F3FC4FF0A04010BD054878
:103CB000FCE700BFA58B0000A0850000728B000010
:103CC0008C8D000000030050F0B5044685B0174607
:103CD0001D46F1B1FFF73CFF10B14A4805B0F0BDF9
:103CE0000B46CDE900008DF80E008DF80F000DF1A8
:103CF0000F020DF10E01204604F040F8424A04F193
:103D0000080132F8113023F0020343F0010322F8D6
:103D1000113097B13C4B3E787A6804F1080033F8D3
:103D200010108F070CD5002AD7D133F8102022F0BD
:103D30001C0242EA860223F81020CDBB3348CDE7AF
:103D400021F02001C904C90C23F81010002AECD07E
:103D5000032EC2D817782EB92D4A07F5A27142F862
:103D60002160E2E7BA0002F1804202F5C04241EA76
:103D70004731D2F810C52CF0030CC2F810C5D2F8A8
:103D800010C52CF44F3C2CF4407CC2F810C5D2F87E
:103D900010E54FEA042C0CF47C5C4EEA064E4CEA2B
:103DA0000E0C41F0200123F81010C2F810C5BCE73A
:103DB000D5E900672046FFF7F7FE002EBED0124D72
:103DC0002B689E4204D16B689F4201D100220AE019
:103DD00010480DF10F01FFF775FE0C4B98427FF470
:103DE0007DAF9DF80F2045F8326005EBC203083423
:103DF0005F6035F8143043EA422343F4807325F8BA
:103E000014309BE70400AD0BE80000200000AD0B70
:103E1000006000405C010020F0B5044685B0154606
:103E200009B300F10807314E36F81730980701D46E
:103E30009A0658D413F01C0F02D04B78012B52D0A5
:103E400001238DF80F300023CDE900134A1C8B1C91
:103E500020460DF10F0103F091FF36F8173043F0C3
:103E6000030326F8173015B9214805B0F0BD1F4EE1
:103E700004F1080736F81700830734D595F800C019
:103E80006146890020F0200001F18041C00401F565
:103E9000C041C00C26F817000023C1F810356A781D
:103EA000002AE1D0D1F81035AD7823F4991323F42A
:103EB000F853C1F81035D1F810E5230203F47C5310
:103EC000120443EA0E0302F440322D05134305F4B5
:103ED000801540EA4C302B4340F0200026F81700B4
:103EE000C1F81035C0E70348BFE700BFE800002075
:103EF0000000AD0B0400AD0B014BC3E9020170479C
:103F0000E800002038B504460D4659B90B490C4865
:103F10000C4A40F2352303F08EFC0A4840F235216A
:103F200003F0B5FB0834084B33F814309A0643BF4E
:103F30005B0B2B700548064838BD00BFF98C0000AC
:103F4000A0850000818C0000E80000200000AD0B7F
:103F50000400AD0B38B50E4C94F87850B5B960221A
:103F6000294604F1100003F0C7FC0620FDF7FCFC15
:103F7000084B09481D601B68084B4FF00042C3F80E
:103F80000423012384F87830636738BD0448FCE7D4
:103F9000E80000207C6100400000AD0B00600040A4
:103FA0000500AD0B034B93F87800003818BF0120D3
:103FB000704700BFE800002001460148FFF7A6BD9A
:103FC0005801002001460148FFF77CBD5801002040
:103FD000F7B5314D00F10807044635F8173013F0F6
:103FE0001C0F0E460BD12D492D482E4A40F2DF33CF
:103FF00003F021FC2B4840F2DF3103F048FB35F899
:10400000170083061FD510F002031CD1410B084690
:1040100003F0B0FE00F1804000F5C040036003688B
:104020008B0003F1804303F5C043D3F8102542F021
:104030000102C3F8102526B11B4A01238B40C2F8A8
:10404000043303B0F0BD5EB918491548154A40F273
:10405000EE3303F0F0FB134840F2EE3103F017FBB0
:1040600035F81730C3F38203042B10D0052B10D082
:1040700001A80194FFF7F2FD019BD0F81015D9407B
:1040800001F001010231204603F0C3FED9E703210C
:10409000F9E70221F7E700BFE8000020038D0000E8
:1040A000A0850000818C000000600040188D000099
:1040B0000E4B00F1080233F81230990613D59A0717
:1040C00011D45B0B01229A409B00094903F1804304
:1040D00003F5C043C1F80823D3F8102522F00302EA
:1040E000C3F810257047002103F093BEE8000020BC
:1040F000006000400E4B00F1080213B513F81230B7
:10410000DB07044611D5FFF7D3FF2046FFF78CFDF0
:1041100001A80194FFF7A2FD019B03F5E0730222C1
:1041200040F82320034802B010BD0348FBE700BF5E
:10413000E80000200000AD0B0400AD0B2DE9F04FAE
:10414000654B66486649002589B001222C461E68E9
:1041500036B1D0F8046316421EBF1C601E681543BA
:1041600004338B424FEA4202F1D15E4F3B687BB38E
:104170004FF0A0435C4ED3F820250692C3F82025CB
:10418000D6F820350793C6F8203501960DF11809A9
:104190004FF000084FF0010BD9F80030F3B908F1E7
:1041A0002008B8F1400F09F10409F5D13B603B68E4
:1041B00001994FF0A043D3F820250692C3F820259B
:1041C000019BD3F820350793C1F820351343DDD187
:1041D0000124002D68D109B0BDE8F08F93FAA3F354
:1041E000B3FA83F308EB030606F108023F4B05968A
:1041F00033F81220C2F38203F40802939A4606AB06
:1042000006F007000BFA00FC185D20EA0C001855B8
:10421000910805A80391FFF721FD059C039904F57A
:10422000E0744B0750F82440C4F3014423D55146B1
:104230003046FFF79BFC05A80596FFF70FFD059A92
:1042400002F5E072E4B250F82220C2F30142944237
:1042500007D10021304603F0DCFD2146304603F053
:10426000D8FD05A80596FFF7F9FC059B0BFA03F3AB
:10427000C0F8203590E7022C0CBF03210221304604
:1042800003F0C7FD029B032B04D0022C07D1BAF127
:10429000010FE6D151463046FFF768FCE1E7032CF9
:1042A000DFD1BAF1020FF4E795FAA5F3B3FA83F37D
:1042B00004FA03F29B0003F1804303F5C04325EAAF
:1042C0000205D3F81005D3F81015C0F30520C1F38B
:1042D0000141FFF74BFC7CE70061004000600040BB
:1042E000206100407C61004000030050E800002095
:1042F00001460148FFF7E6BB640100202DE9F041CB
:1043000004460E4615465AB932493348334A40F2FC
:10431000A72303F090FA314840F2A72103F0B7F940
:104320002F685FB92E492C482C4A4FF42D7303F0A7
:1043300082FA2A484FF42D7103F0A9F904EB4618CC
:10434000C8F82075AF88002F38D12649234A224863
:1043500040F2BD2303F06FFA40F2BD211F4803F085
:1043600096F9C8F82475AF68B7F1807F0BD31E4962
:1043700019481A4A40F2C72303F05DFA174840F281
:10438000C72103F084F9ED684FEA461804EB46169E
:10439000B5F1807FC6F828750BD314490E480F4A33
:1043A0004FF4347303F047FA0C484FF4347103F0C0
:1043B0006EF94444C4F82C55BDE8F0813B04D0D5D7
:1043C0000B49064A044840F2BE2303F034FA40F297
:1043D000BE21C3E7558D0000A0850000238D00009D
:1043E0006A8D0000828D0000AC8D0000CD8D000034
:1043F0008E8D00000268530910B504462CD0012BA5
:104400004FF6FF7318BF002302F01F02D340DB07F3
:104410000BD414491448154A40F2292303F00BFA2F
:10442000124840F2292103F032F9236803F01F02F9
:104430005B0922600DD0012B11D00D490A480B4AAF
:1044400040F22E2303F0F7F9084840F22E2103F042
:104450001EF94FF0A04010BD4FF0FF33D4E70548E0
:10446000F9E700BFA58B0000A0850000728B00005B
:104470008C8D0000000300502DE9F04F064687B0F8
:10448000914698460C4649B959495A485A4A8C238C
:1044900003F0D1F958488C2103F0F9F83779574DDA
:1044A0000C2179436B181A7A002A40F09F80227BF6
:1044B00045F80190C3F804809A72002A4DD0637BBE
:1044C000002B4AD0D6F80080B4F808900123C8F831
:1044D0000035B4F9083094F805B094F806A0002B24
:1044E0000BDA47494348474A4FF4277303F0A3F9CF
:1044F00044484FF4277103F0CAF8C8F80CB5306887
:10450000C8F804A5C8F808956389C0F810350023D9
:10451000C0F80032C0F80033C0F81C31D0F81C21BC
:10452000C0F81031D0F81021C0F81431D0F814219F
:10453000C0F80431D0F804310C237B43EB581BB195
:1045400040F30730FDF710FA0C2303FB07552E4804
:1045500001232B7207B0BDE8F08F04F1FF390DF194
:10456000080804F1030A19F8012FFF2A39D0217B2A
:1045700022F0800BC8F800B0B1B91306CDF804B032
:1045800001A826D4FFF736FF019901228A40C0F81E
:104590000C2501A8CDF804B0FFF72CFF019B03F513
:1045A000E073032240F82320D14508F10408DAD152
:1045B000637B002B86D13368029AC3F86025039A87
:1045C000C3F86425049AC3F86825059AC3F86C25D6
:1045D00078E7FFF70FFF019901228A40C0F808250C
:1045E000D7E74FF0FF33C8F80030DDE70748B1E701
:1045F0002B8E0000A0850000F08D0000140B002021
:10460000348E0000238D00000000AD0B0500AD0BC3
:104610002DE9F041984603791446314A0E4603EBE2
:10462000430102EB81070C2101FB032305461B7AA2
:104630005BB92C492C482D4A4FF4967303F0FBF8D4
:104640002A484FF4967103F022F85CB928492648AD
:10465000264A40F22D1303F0EEF8244840F22D11C3
:1046600003F015F8336803F06043B3F1005F0BD03B
:1046700020491D481D4A4FF4977303F0DCF81B488E
:104680004FF4977103F003F8286832460021FFF7D2
:1046900035FE286832460121FFF730FE286804F015
:1046A000010303EB540418F0010FC0F8144514D1B2
:1046B00018F0020203D0002B14BF08220422002BA2
:1046C000C0F8002239465FFA88F218BF0C23BDE813
:1046D000F04108BF082303F0ABBB1022EFE700BF97
:1046E000140B0020558E0000A0850000F08D000006
:1046F000818E0000948E000070B5124E04790C2259
:1047000002FB04620546127A5AB90F490F48104A53
:104710004FF4D57303F08FF80D484FF4D57102F0C4
:10472000B6FF0C232A6803FB0464237AD2F8042121
:10473000DBB21AB9981E18BF012070BD012020728B
:10474000FBE700BF140B0020558E0000A085000081
:10475000F08D000038B5144A03790D460C2101FB99
:10476000032304461B7A5BB910491148114A40F2F1
:10477000851303F060F80F4840F2851102F087FFBF
:1047800023680022C3F8002201225A602046FFF766
:10479000B3FF38B92046FFF7AFFF18B9002DF9D1A4
:1047A000284638BD0125FBE7140B0020BD8E000014
:1047B000A0850000F08D0000034B1868A0F10803ED
:1047C00058425841704700BF30010010064B1B682B
:1047D000082B06D1054B1B68052B02D8044AD05C78
:1047E00070470020704700BF3001001034010010F6
:1047F000088F0000024AD2F80034002BFBD070472B
:1048000000E0014010B5FFF7D7FF40B14FF0804303
:104810000022C3F80C21C3F81021C3F83825FFF794
:10482000CBFF002846D04FF080525B4BD2F80414E7
:10483000C3F82015D2F80814C3F82415D2F80C14C4
:10484000C3F82815D2F81014C3F82C15D2F8141494
:10485000C3F83015D2F81814C3F83415D2F81C1464
:10486000C3F84015D2F82014C3F84415D2F8241424
:10487000C3F84815D2F82814C3F84C15D2F82C14F4
:10488000C3F85015D2F83014C3F85415D2F83414C4
:10489000C3F86015D2F83814C3F86415D2F83C1484
:1048A000C3F86815D2F84014C3F86C15D2F8442444
:1048B000C3F87025FFF78AFF10B1384B384A1A60E9
:1048C000FFF784FF18B1374BFB22C3F81825FFF719
:1048D0007DFF48B13449354B0A681B6822F00F024E
:1048E00003F00F0313430B60FFF770FF18B1304B59
:1048F0004FF400721A60FFF75FFF48B14FF080433A
:10490000D3F80024D20744BF6FF00102C3F800249B
:10491000284B1B68082B0ED1274B1B68052B02D890
:10492000264AD35C3BB14FF01023D3F808224FF056
:104930008043C3F858254FF01023D3F80022002AF3
:1049400003DBD3F80432002B22DA1D490123C1F81E
:104950000435FFF74FFF4FF010201224C0F800423B
:10496000FFF748FFC0F80442FFF744FF0023C1F8F7
:104970000435FFF73FFFBFF34F8F1249124BCA6850
:1049800002F4E0621343CB60BFF34F8F00BFFDE73B
:104990000E4B0F4A1A6010BD00C000408C560040FC
:1049A0004881030000F00040E40E0040580200106F
:1049B000409602403001001034010010028F0000C8
:1049C00000E0014000ED00E00400FA05680100206D
:1049D0000090D00310B5144C144A154903232361E9
:1049E0006361144BA261E3614FF48063236200238F
:1049F000A3626362E36222660F4A6266E01D1022D0
:104A0000A2662367E366636702F045FFBFF35F8F2B
:104A10000A49204602F03FFFBFF35F8F2023A371B6
:104A2000BFF35F8F10BD00BF200B00200E8F000072
:104A3000178F00003D0C00202D0C00201B8F000064
:104A40000E4B70B553F82040013053F82060A64259
:104A500000D870BDD4E900352846984765B1EB68A9
:104A600030B10028B8BF4042FF28A8BFFF2018700F
:104A70005A7842F001025A700834E8E7D8830000FF
:104A800070B5054610B90024204670BD0378002B90
:104A9000F9D00F4A0F4C1646944208D10D4CB4423F
:104AA000F1D0204603F0EFF950B91834F7E720466B
:104AB00003F0E9F910B12368AB42E5D01834EBE715
:104AC0002168284602F001FF0028EED1DCE700BF94
:104AD000C48000001C800000F8B504460E464FF06C
:104AE0002003EFF3118783F31288BFF36F8F01F078
:104AF00095FC31460546204603F019F9042C0CD1EB
:104B00000A490B4A0B488F2302F095FE0A4802F02F
:104B100092FE07488F2102F0BAFD87F31188BFF398
:104B20006F8F2846BDE8F840FDF7CAB9448F0000F2
:104B3000228F0000A0850000618F0000114CA26848
:104B400092F90E20002A08B509DA0F490F48104AD9
:104B5000272302F070FE0E48272102F098FD4FF047
:104B60002002EFF3118382F31288BFF36F8F02F0FC
:104B7000B1F8A061FCF7CCFD0028F0D1FCF77EFE77
:104B8000EDE700BFC80B0020B78F0000A085000034
:104B9000968F000030B5002387B00122CDE90423B1
:104BA0000F22CDE902320D4C0D4A01930D49182315
:104BB00004EBC01403FB00234FF4B075009305FB16
:104BC0000011094B4FF4A072204601F0A9FD637B50
:104BD00023F00403637307B030BD00BFE00300207F
:104BE000C80B0020802200203D4B000008B50A4B76
:104BF000012202201A70FFF723FF02F04DFB032071
:104C0000FFF71EFF01F03EFEFBF7EEFC034A137BAD
:104C100023F00103137308BD3D1000206004002041
:104C20000248034A0021121A02F066BE4002002028
:104C3000FC11002080B5DFF8D880A6B088F3088882
:104C40002D4D2E4E6B69DFF8CC9043F40073002499
:104C50006B61E02385F82230EC772C766C76AC76AD
:104C600085F820406B6A43F4E0236B6285F82340AB
:104C7000FDF7D0F8FCF7FCFD4FF0FF33AB62EB62C1
:104C8000FDF7F8F9FDF72EF940F20113ADF82430E5
:104C900006ABB360CDE91F4403F0F4F82046FFF7FC
:104CA000CFFE0120164DFFF7CBFE01F021FA154B88
:104CB0000593012314490094CDE903434FF4806226
:104CC0004B46CDE901442846F56101F029FD6A7B98
:104CD00022F004026A730746284600F009FE2046C7
:104CE000FFF758FF094BF3604A46394628463475AA
:104CF000C6F80480FCF7F6FE00ED00E0C80B0020CB
:104D000060040020DF8F0000601E0020E003002010
:104D1000002C0020ED4B00002DE9F041164D174C02
:104D2000174EA846AC420CD9164917483C233246C8
:104D300002F081FD154802F07EFD3C21304602F074
:104D4000A6FC444502D30020BDE8F081D4E904214B
:104D500041EA020313F003030BD1E068A36183422D
:104D600001D12034DEE7A7690F600133A16111444E
:104D7000F5E76FF01500E7E7F0010020F0010020F3
:104D8000E48F000009900000A0850000269000003C
:104D90002DE9F74304460E469046994600F1080572
:104DA0004FF02003EFF3118783F31288BFF36F8F67
:104DB000284601F0F7FD68B9244A25492548812392
:104DC00002F039FD2448294602F035FD1F488121B3
:104DD00002F05DFC284601F003FEA369EBB13360ED
:104DE0001B68A361E3690133E3610024284601F0F5
:104DF000E7FD68B9154A19491648AC2302F01BFDB6
:104E00001748294602F017FD1048AC2102F03FFC7C
:104E100087F31188BFF36F8F13E058EA090203D1BB
:104E200033606FF00B04E1E72246CDE90089394693
:104E3000284600F00FFF044618B90A4B9B685B69CF
:104E40003360204603B0BDE8F08300BFB3860000A6
:104E500005870000A08500001A870000D9860000A1
:104E6000F0860000C80B00202DE9F04104460E46F4
:104E700000F108054FF02003EFF3118783F3128848
:104E8000BFF36F8F284601F08DFD68B9224A234990
:104E90002348812302F0CFFC2248294602F0CBFCB4
:104EA0001D48812102F0F3FB284601F099FDD4F85A
:104EB0001880B8F1000F0FD1204601F0C9F858B1A1
:104EC00032684261C0F8788000F012FD3946284609
:104ED000BDE8F04100F0B8BA3368A2691A603368DF
:104EE000A361E369013BE361284601F069FD68B90C
:104EF000094A0D490A48AC2302F09DFC0B4829469B
:104F000002F099FC0448AC2102F0C1FB87F3118840
:104F1000BFF36F8FBDE8F081B38600000587000006
:104F2000A08500001A870000D9860000F0860000E6
:104F30002DE9F341044616461F46EFF3058363B19E
:104F40007049714A7148652302F075FC704802F09F
:104F500072FC6D48652102F09AFB4FF02003EFF3DD
:104F6000118883F31288BFF36F8F6A4801F01AFD2E
:104F700068B9694A69496548812302F05CFC654962
:104F8000674802F058FC6448812102F080FB6148C8
:104F900001F026FDE368634AFBB1A068916888428E
:104FA0003DD056EA07033CD15A4801F009FD68B9E3
:104FB000594A5D495548AC2302F03DFC55495B48D0
:104FC00002F039FC5448AC2102F061FB88F31188EF
:104FD000BFF36F8F6FF00F001EE0916891F90E1014
:104FE0004C4821610133E3609368A36001F0E8FC61
:104FF00068B9494A4C494548AC2302F01CFC454974
:105000004A4802F018FC4448AC2102F040FB88F307
:105010001188BFF36F8F002002B0BDE8F0812169D5
:10502000DEE791F90E1090F90E309942A8BF1946AB
:105030006FF07E029142B8BF11468B4244DD00F012
:1050400039FE0546CDE9006732482246414600F068
:1050500001FE0028E0D04FF02003EFF3118683F328
:105060001288BFF36F8F2B4801F09CFC68B92A4A65
:105070002A492648812302F0DEFB2649284802F00F
:10508000DAFB2548812102F002FB224801F0A8FC4E
:10509000236821699C420AD04BB193F90E309942A2
:1050A000A8BF19466FF07E039942B8BF1946A068A1
:1050B00090F90E30994209D16DB11648314600F091
:1050C000C3F96FF00A00A7E70025BBE700F0F2FD87
:1050D0000028F2D1F0E70F4801F072FC68B90E4ADF
:1050E00011490A48AC2302F0A6FB0A490F4802F016
:1050F000A2FB0948AC2102F0CAFA86F31188BFF37B
:105100006F8FDEE76790000045900000A0850000EB
:1051100079900000F00B0020B386000005870000A6
:105120001A870000C80B0020D9860000F086000016
:1051300038B50446EFF3058363B15249524A5348E8
:10514000C72302F078FB524802F075FB4E48C72196
:1051500002F09DFAA368002B00F08D804D4DAA68E7
:10516000934240F08B80E3684BB94B494748464A2D
:10517000DF2302F060FB4448DF2102F088FAEFF3FE
:10518000058363B13F49454A4048FD2302F053FB84
:10519000434802F050FB4148FD2102F078FAAB6829
:1051A000DB7B012B0CD13F493C4A3848FE2302F0FF
:1051B00042FB3B4802F03FFB3848FE2102F067FA11
:1051C000AA68D37B013BD373E368012B05D9013B6C
:1051D000E36000F075FE002038BD4FF02003EFF3D0
:1051E000118583F31288BFF36F8F2F4801F0DAFB2C
:1051F00068B92E4A2E492548812302F01CFB2A4912
:105200002C4802F018FB2948812102F040FA264878
:1052100001F0E6FBA068216990F90E30994201D0B7
:1052200000F048FD204600F013FFA06058B190F94F
:105230000E2022610022826700F05AFB1A4829469C
:1052400000F002F9C5E7E060174801F0B9FB68B962
:10525000164A19490D48AC2302F0EDFA12491748D5
:1052600002F0E9FA1148AC2102F011FA85F3118835
:10527000BFF36F8FADE76FF01500ADE74FF0FF3074
:10528000AAE700BF6790000045900000A0850000DD
:1052900079900000C80B00209E900000B59000009F
:1052A000E0900000E3900000F00B0020B3860000C7
:1052B000058700001A870000D9860000F0860000EC
:1052C00010B5084C23685BB1FEF784FA03462068EA
:1052D000054A0344BDE810401361002101F042BDBE
:1052E00010BD00BF000C0020C80B0020F8B504461C
:1052F0000D464FF02003EFF3118683F31288BFF3BE
:105300006F8F234801F04EFB68B9224A2249234897
:10531000812302F090FA1E49214802F08CFA1D48C0
:10532000812102F0B4F91A4801F05AFB1D4B00220A
:105330004FF4004740F2E73000211A61E7FB040117
:1053400000234FF47A72FAF7DBFE002C164B1BDCBD
:105350001860164B1D60FFF7B3FF0D4801F030FBDE
:1053600068B90C4A12490D48AC2302F064FA0849A6
:10537000104802F060FA0748AC2102F088F986F381
:105380001188BFF36F8FF8BD0228B8BF0220DFE796
:10539000F80B0020B386000005870000A085000000
:1053A0001A870000C80B0020000C0020FC0B002016
:1053B000D9860000F086000038B504464FF020037F
:1053C000EFF3118583F31288BFF36F8F174801F055
:1053D000E9FA68B9164A17491748812302F02BFAEF
:1053E0001249164802F027FA1148812102F04FF9BC
:1053F0000E4801F0F5FA204600F000F90B4801F0E4
:10540000DFFA68B90A4A0E490B48AC2302F013FAD6
:1054100006490C4802F00FFA0548AC2102F037F9B2
:1054200085F31188BFF36F8F38BD00BFF80B0020E4
:10543000B386000005870000A08500001A870000E1
:10544000D9860000F086000038B504460D46E9B95B
:10545000EFF30583D3B9194BDA699B689A4215D0EB
:1054600001F0AEFA68B9164A16491748C32302F08C
:10547000E2F91648214602F0DEF91148C32102F094
:1054800006F9BDE838400020FCF7DCBA204601F000
:1054900097FA68B90A4A0B490B48AC2302F0CBF9DA
:1054A0000A48214602F0C7F90548AC2102F0EFF89E
:1054B00085F31188BFF36F8F38BD00BFC80B002084
:1054C000B3860000D9860000A0850000F0860000A9
:1054D00038B54FF02003EFF3118583F31288BFF343
:1054E0006F8F294801F05EFA68B9284A284929488F
:1054F000812302F0A0F92449274802F09CF92348AF
:10550000812102F0C4F8204801F06AFAEFF3058324
:1055100063B12249224A1F48FD2302F08CF9214839
:1055200002F089F91E48FD2102F0B1F81E4CA26874
:10553000D27B012A0CD11D49194A1648FE2302F0DC
:105540007AF9184802F077F91548FE2102F09FF821
:10555000A268D37B013BD3730B4801F031FA68B9E1
:105560000A4A13490B48AC2302F065F90649114871
:1055700002F061F90548AC2102F089F885F3118841
:10558000BFF36F8F38BD00BFF80B0020B38600005B
:1055900005870000A08500001A87000067900000C2
:1055A000B5900000E0900000C80B0020E3900000E0
:1055B000D9860000F08600000C4B994210B50C46CD
:1055C0000BD10B490B480C4A40F2E73302F033F998
:1055D000094840F2E73102F05AF8D4E9003213608A
:1055E0005A600023C4E9003310BD00BFE00300206F
:1055F00036910000A085000014910000836810B56A
:1056000004465BB90B490C480C4A40F2832302F074
:1056100012F90A4840F2832102F039F8A0682146C5
:10562000FFF7CAFF637B23F0020363730023A360C9
:1056300010BD00BF57910000A0850000149100002C
:1056400038B502461448154D02F067FC044600B90F
:10565000EC68CAB9AB6863B91149124A1248892388
:1056600002F0E9F8114802F0E6F80E48892102F04C
:105670000EF8AB685A7BD20606D1A26922B9DA8944
:105680007F2A01D9EB6138BDAB68A34201D0FFF797
:1056900017FEEC61F7E700BFE80B0020C80B002005
:1056A0006E91000014910000A0850000E0900000C1
:1056B00070B590F90D20437B002A044606DA03F00A
:1056C0007F03437301461F48FFF776FF637B63F058
:1056D0007F0363731C4B9C4209D11C491C481D4A23
:1056E000BA2302F0A8F81B48BA2101F0D0FF1A4AE9
:1056F0001146556A51F8203F8B4208BF0023002B0A
:1057000038BF0023CBB194F90E6093F90E008642A6
:105710000FD0801B00280CDD5968C4E900310C60F3
:105720005C609068031B5842BDE870405841FFF729
:1057300087BFAB4201D01B68E4E7C4E900152C60C9
:105740005462EEE7E80B0020E003002036910000F1
:10575000A085000014910000C80B002070B504461D
:105760004FF02003EFF3118583F31288BFF36F8F9F
:105770002A4801F017F968B9294A2A492A48812399
:1057800002F059F82549294802F055F824488121AA
:1057900001F07DFF214801F023F9254B254A986847
:1057A00011688842194618D1FFF78AFD1B4801F09D
:1057B00007F968B91A4A20491B48AC2302F03BF8A4
:1057C00016491E4802F037F81548AC2101F05FFF7A
:1057D00085F31188BFF36F8F70BD00261660184ADD
:1057E0001268BAB1C2897F2A14D8427BD20611D17D
:1057F000144A90F90E60126896420BDB124A9042EE
:1058000008D01A69A24202DCFFF752FFCCE7121B54
:105810001A61CBE700230B61C8E700BFF80B00203B
:10582000B386000005870000A08500001A870000ED
:10583000C80B0020F40B0020D9860000F086000081
:10584000000C0020FC0B0020E003002070B590F954
:105850000D20437B002A04463EDBDA063CD18569F5
:10586000002D39D163F07F0343731C4B984209D15B
:105870001B491C481C4ABA2301F0DDFF1A48BA2113
:1058800001F005FF19490B4653F8200F984218BF45
:105890000546002D1A462B464D6A38BF0023B3B18A
:1058A00094F90E6093F90E0086420CD0801B0028FC
:1058B00009DD5A68C4E9003214605C60BDE87040DC
:1058C0000020FFF7BDBEAB4201D01B68E7E7C4E98B
:1058D00000252C604C62F1E770BD00BFE0030020A2
:1058E00036910000A085000014910000C80B002034
:1058F00038B504464FF02003EFF3118583F3128887
:10590000BFF36F8F174801F04DF868B9164A174971
:105910001748812301F08FFF1249164801F08BFFD1
:105920001148812101F0B3FE0E4801F059F82046DC
:10593000FFF78CFF0B4801F043F868B90A4A0E499B
:105940000B48AC2301F077FF06490C4801F073FFC8
:105950000548AC2101F09BFE85F31188BFF36F8FE2
:1059600038BD00BFF80B0020B3860000058700009B
:10597000A08500001A870000D9860000F08600008C
:1059800038B504464FF02003EFF3118583F31288F6
:10599000BFF36F8F1D4801F005F868B91C4A1D4917
:1059A0001D48812301F047FF18491C4801F043FFBF
:1059B0001748812101F06BFE144801F011F8637B58
:1059C0005A0716D4114800F0FBFF68B9104A144971
:1059D0001148AC2301F02FFF0C49124801F02BFFB6
:1059E0000B48AC2101F053FE85F31188BFF36F8F94
:1059F00038BD23F0040320466373FFF727FF2946D1
:105A00000248BDE83840FFF71FBD00BFF80B00207B
:105A1000B386000005870000A08500001A870000FB
:105A2000D9860000F086000070B504464FF02003D0
:105A3000EFF3118683F31288BFF36F8F204800F0D5
:105A4000B1FF68B91F4A20492048812301F0F3FEC5
:105A50001B491F4801F0EFFE1A48812101F017FE93
:105A6000174800F0BDFF14F80B3C13F0280F10D1BD
:105A700054F8103CA4F1180513B12846FFF7BEFDF9
:105A800014F80B3C23F0140304F80B3C2846FFF7F2
:105A9000DDFE0B4800F094FF68B90A4A0D490B4837
:105AA000AC2301F0C8FE06490B4801F0C4FE0548CE
:105AB000AC2101F0ECFD86F31188BFF36F8F70BD50
:105AC000F80B0020B386000005870000A0850000C9
:105AD0001A870000D9860000F086000010B590F902
